:020000040800F2
:1000000018340020A10100089D0C0008950C000880
:10001000990C0008AD0800087316000800000000E5
:10002000000000000000000000000000810F000838
:10003000B50B0008000000002D0D0008AD0F0008F2
:10004000BB010008BB010008BB010008BB010008A0
:10005000BB010008BB010008BB010008BB01000890
:10006000BB010008BB010008BB010008BB01000880
:10007000BB010008BB010008BB010008BB01000870
:10008000BB010008BB010008BB010008BB01000860
:10009000BB010008BB010008BB010008BB01000850
:1000A000BB010008BB010008BB010008BB01000840
:1000B000BB010008BB010008BB010008BB01000830
:1000C000BB010008BB010008BB010008BB01000820
:1000D000BB010008BB010008A9130008B913000800
:1000E000BB010008BB010008BB010008BB01000800
:1000F000BB010008BB010008BB010008BB010008F0
:10010000BB010008DD0E0008BB010008BB010008B0
:10011000BB010008BB010008BB010008BB010008CF
:10012000BB010008BB010008B1080008BB010008C2
:10013000BB010008BB010008BB010008BB010008AF
:10014000BB010008BB010008BB010008BB0100089F
:10015000BB010008BB010008BB010008C91300086F
:10016000BB010008BB010008BB010008BB0100087F
:10017000BB010008BB010008BB010008BB0100086F
:10018000BB010008BB010008DFF810D000F06CFBD9
:1001900000F04EF80048004705C800081834002059
:1001A0000648804706480047FEE7FEE7FEE7FEE711
:1001B000FEE7FEE7FEE7FEE7FEE7FEE7C50F000805
:1001C0008901000840EA01039B0703D009E008C940
:1001D000121F08C0042AFAD203E011F8013B00F80C
:1001E000013B521EF9D27047D2B201E000F8012B58
:1001F000491EFBD270470022F6E710B513460A46A7
:1002000004461946FFF7F0FF204610BD30B50546FD
:100210002A460B4612F8010B13F8014B08B1A04215
:10022000F8D01CB1002802D06D1CF1E7284630BD83
:1002300070B5054C054D03E0206820448047241D1F
:10024000AC42F9D170BD000010CD00082CCD0008E3
:100250002DE9FE4F804681EA0300C00F0C46009056
:1002600021F0004123F00045B8EB0200A94105D27E
:100270004046214690461C460B46024623F000406D
:10028000104347D0270DC7F30A00C3F30A51029069
:10029000401A019040286BDAC3F3130040F4801B2E
:1002A0000098924620B10023D2EB030A63EB0B0BBC
:1002B00001985946C0F14002504600F008FA06463F
:1002C0000D4650465946019A00F010FA10EB08000E
:1002D0006141002487EA115284EAE7731A4340D04F
:1002E000009A62B3019A012A4FEA075215DC001BFB
:1002F00061EB02014FF0004202EA0752CDE90042F1
:10030000001C41F5801132462B4600F047FA03B03D
:10031000BDE8F08F40462146F9E7001B61EB020182
:10032000001C41F5801300185B412018A2F500174E
:1003300047EB030140EAD570B6196D4111E06D0835
:100340004FEA360645EAC0754FEA0752001B61EBDB
:100350000201001C41F5801149084FEA30000019E4
:10036000514132462B4603B0BDE8F04F00F007BACA
:100370000098012240000023D0EB020263EBE073FF
:10038000009821464FEAE074B8EB000061EB0401ED
:10039000E9E783F000435BE781F0004158E72DE98E
:1003A000FE4F81EA030404F0004421F00041009470
:1003B0004FF0000B23F0004350EA01045ED052EAF4
:1003C00003045BD0C3F30A54C1F30A552C44A4F2CE
:1003D000F3340194A0FB0254C1F3130141F48011E2
:1003E000C3F3130343F4801301FB024400FB034EE9
:1003F000840A970A44EA815447EA8357A4FB0768B2
:1004000002958D0A05FB07854FEA932C04FB0C54DB
:100410002705029D4FEA065847EA1637B5EB08054F
:100420006EEB070C870E920E47EA811742EA8312A1
:10043000A7FB0201B6EB0B0164EB00042B0D43EAB2
:100440000C335E1844EB1C50DA465146E7FB0201C0
:10045000C5F313044FEA0B3343EA14534FEA043253
:10046000019C43EA0603A4F10C040294009CCDE92C
:1004700000B400F093F903B0BDE8F08F002001460E
:10048000F9E72DE9F04D81EA030404F0004B21F077
:10049000004514464FF0000A23F0004150EA0502DF
:1004A00020D054EA01021DD0C5F30A570246C5F315
:1004B0001303C1F31300C1F30A5640F4801543F44B
:1004C0008013A7EB0608101BD64608F2FD3873EB25
:1004D000050002D308F1010801E092185B41B8F170
:1004E000000F03DA00200146BDE8F08D00204FF434
:1004F0008011064684460EE0171B73EB050705D3F3
:10050000121B63EB050306434CEA010C49084FEA52
:10051000300092185B4150EA0107EDD152EA030026
:1005200012D082EA040083EA0501084305D0101BBB
:10053000AB4106D20122002306E000224FF0004327
:1005400002E06FF0010253101AEB06004CEB085169
:1005500010EB0A0041EB0B01BDE8F04D00F00FB9C4
:100560000EB5C10F80EAE0700844CA07002140F2CE
:1005700033438DE80E000A460B4600F00FF903B036
:1005800000BD00F0004230F000400AD0C10D01F57E
:100590006071C0F3160042EA0151C20840071143DE
:1005A000704700200146704730B5041E71F1000409
:1005B00004DB4FF00044404264EB0101141E73F170
:1005C000000405DB1C464FF00043524263EB04037A
:1005D0008B4208BF824230BD30B5041E71F1000469
:1005E00004DB4FF00044404264EB0101141E73F140
:1005F000000405DB1C464FF00043524263EB04034A
:10060000994208BF904230BD01F0004330B421F060
:10061000004150EA010206D00A0DA2F56072C1F352
:100620001301002A02DC30BC00207047440F44EA6A
:10063000C104C100E01830BC00EBC25000F068B843
:1006400030B50B46014600202022012409E021FAA2
:1006500002F59D4205D303FA02F5491B04FA02F59F
:100660002844151EA2F10102F1DC30BD2DE9F05F36
:100670000546002092469B46884606468146402411
:100680001BE0284641464746224600F0FFF8534605
:100690005A46C01A914110D311461846224600F01E
:1006A00016F82D1A67EB01084F462246012000215B
:1006B00000F00DF817EB00094E41201EA4F10104D3
:1006C000DFDC484631462A464346BDE8F09F202AF3
:1006D00004DB203A00FA02F1002070479140C2F199
:1006E000200320FA03F3194390407047202A06DBC9
:1006F000CB17203A41FA02F043EAE07306E041FAF0
:1007000002F3D040C2F120029140084319467047DD
:100710000029A8BF7047401C490008BF20F0010015
:10072000704710B4B0FA80FC00FA0CF050EA0104F3
:1007300004BF10BC704749B1CCF1200421FA04F485
:1007400011FA0CF118BF012121430843A3EB0C015E
:10075000CB1D4FEA00614FEA102042BF002010BCC1
:10076000704700EBC35010440029A4BF10BC704771
:10077000401C490008BF20F0010010BC704710B5B4
:10078000141E73F1000408DA401C41F100019218B4
:100790005B411A4301D120F0010010BD2DE9F04D5D
:1007A00092469B4611B1B1FA81F202E0B0FA80F2B2
:1007B00020329046FFF78BFF04460F4640EA0A00BE
:1007C00041EA0B0153465A46084313D0114653EAF7
:1007D000010019D0C8F14002504600F057F8054614
:1007E0000E46504659464246FFF771FF084305D072
:1007F000012004E020463946BDE8F08D0020054385
:1008000046EAE0762C4337430A986305E40AA0EBF6
:1008100008000022FD0A44EA47540A3002D50020AD
:100820000146E9E7010510196941DDE908450019AC
:100830006941BDE8F04DA2E7C1F30A52C1F31301CB
:1008400040F2FF3341F480119A4202DA002001465F
:10085000704740F233439A42A2F2334202DC5242E2
:1008600000F014B8FFF733BF064C074D06E0E06810
:1008700040F0010394E8070098471034AC42F6D3E7
:10088000FFF786FCF0CC000810CD0008202A04DB1E
:10089000203A21FA02F00021704721FA02F3D040F9
:1008A000C2F12002914008431946704700BFFEE79D
:1008B00010B50949094800F001F958B14FF08151CC
:1008C000064800F00FF80449044800F025F80448F1
:1008D00006F0E6FC10BD00000080201040640240DD
:1008E0006A1200200246094B9A4201D2084801E0F0
:1008F0000648103801F000531BB1064B0B40C36093
:1009000002E0044B0B40836070470000106402401B
:10091000006002407D0F7D0F0246094B9A4201D2D2
:10092000084801E00648103801F000531BB1064B9F
:100930000B40C36002E0044B0B4083607047000033
:1009400010640240006002407D0F7D0F21B10268FB
:1009500042F00102026003E0026822F0010202603C
:1009600070470000016821F0010101600021016071
:1009700041608160C1600161212141614A49884231
:1009800004D13D21484A103A91608CE04649183123
:10099000884205D14FF47461434A103A916082E075
:1009A00041493031884205D14FF474113E4A103A22
:1009B000916078E03C494831884205D14FF074613C
:1009C000394A103A91606EE037496031884204D16B
:1009D0003649354A103AD16065E03349783188426A
:1009E00004D13349304A103AD1605CE02E4990314D
:1009F000884204D12F492C4A103AD16053E02A4949
:100A0000A831884205D14FF03D51274A103AD160B4
:100A100049E02949884204D13D21274A083A11601A
:100A200041E025491831884205D14FF47461224ACA
:100A3000083A116037E020493031884205D14FF43F
:100A400074111D4A083A11602DE01B494831884253
:100A500005D14FF07461184A083A116023E0164935
:100A60006031884204D11149134A121F11601AE003
:100A700011497831884204D10D490F4A121F116083
:100A800011E00D499031884204D10A490A4A121FE7
:100A9000116008E00849A831884204D14FF03D5167
:100AA000054A121F11607047106002403D0000208F
:100AB000400F002000003D201064024070B5024647
:100AC000002000240025124EB24201D2114B01E059
:100AD0000F4B103B104E0E4036B11E2606EAD124B5
:100AE000166806EA040502E0566906F0800501F082
:100AF00000560EB15C6800E01C68084E344004EA01
:100B0000010616B10DB1012000E0002070BD00000B
:100B100010640240006002403C0F3C0F7D0F7D0FCF
:100B200010B501F080034BB122B1436943F080035B
:100B3000436103E0436923F08003436180290BD0C4
:100B40002AB1036801F01E042343036004E0036834
:100B500001F01E04A343036010BD000010B5002285
:100B60000268134B1A40CC680B6823434C6923433B
:100B70008C692343CC6923430C6A23434C6A234387
:100B80008C6A23434C6B23438C6B23431A430260D0
:100B9000426922F00702D1E90B3423431A43426130
:100BA0000B6943604B6883608B68C36010BD0000B5
:100BB0003F801CF07047F0B50A4600210023002456
:100BC00000BF3DE0012505FA01F3156805EA0304BD
:100BD0009C4234D105684F000326BE40B5430560F2
:100BE00015794E00B5400668354305601579012D2D
:100BF00002D01579022D16D185684F000326BE401C
:100C0000B543856055794E00B540866835438560AB
:100C1000456801268E40B5434560456896798E400B
:100C2000B6B235434560C5684F000326BE40B543A4
:100C3000C560D5794E00B540C6683543C560491CCE
:100C40001029BFD3F0BDF0B5002300244D07ED0EF1
:100C500002FA05F3CE1000F1200555F826504E0794
:100C6000F70E0F26BE40B543CF1000F1200646F820
:100C70002750CE1000F1200555F8265045EA030410
:100C8000CE1000F1200545F82640F0BD41837047A5
:100C90000183704700BFFEE700BFFEE7704700001A
:100CA00070B5002100230F22C4781CB3174C2468B0
:100CB00004F4E064C4F5E064C4F30721C1F1040462
:100CC000E3B20A4144789C40E1B284781440214365
:100CD0000C07210E0E4C05786155047804F01F05B1
:100CE0000124AC4005786D11AD0005F1E025C5F893
:100CF000004109E0047804F01F050124AC40054DD3
:100D00000678761145F8264070BD00000CED00E035
:100D100000E400E080E100E002490143024A116082
:100D2000704700000000FA050CED00E0704700007D
:100D300029B1064A12680243044B1A6004E0034AD0
:100D400012688243014B1A6070470000303802403D
:100D500029B1064A12680243044B1A6004E0034AB0
:100D600012688243014B1A6070470000403802400D
:100D700029B1064A12680243044B1A6004E0034A90
:100D800012688243014B1A6070470000203802400D
:100D900029B1064A12680243044B1A6004E0034A70
:100DA00012688243014B1A607047000044380240C9
:100DB00029B1064A12680243044B1A6004E0034A50
:100DC00012688243014B1A607047000024380240C9
:100DD000F0B5002100220024022500260223324F14
:100DE0003F6807F00C0121B1042905D0082937D14B
:100DF00005E02E4F076036E02D4F076033E02A4FA5
:100E00003F1F3F68C7F38056274F3F1F3F6807F0DB
:100E10003F036EB1264FB7FBF3F7DFF88CC0ACF1A0
:100E2000040CDCF800C0CCF3881C07FB0CF40CE0CD
:100E30001E4FB7FBF3F7DFF870C0ACF1040CDCF821
:100E400000C0CCF3881C07FB0CF4174F3F1F3F6812
:100E5000C7F301477F1C7D00B4FBF5F7076002E094
:100E6000124F076000BF00BF0F4F3F6807F0F0014F
:100E70000909104F7A5C0768D74047600A4F3F68FE
:100E800007F4E051890A0B4F7A5C4768D7408760C6
:100E9000054F3F6807F46041490B064F7A5C47688D
:100EA000D740C760F0BD0000083802400024F400BD
:100EB00040787D0102010020014908607047000070
:100EC000382C014001460020034A12680A400AB14A
:100ED000012000E000207047342C014010B503F0E1
:100EE0005BF910BD0021094B02681A601A1D1168D8
:100EF0006FF30A01D0E901231A43C3681A43036957
:100F00001A431143014A121D11607047082C014019
:100F100021B1028842F04002028004E002884FF6CC
:100F2000BF731A40028070470246002013890B40AD
:100F30000BB1012000E0002070470146888970470E
:100F40008181704710B50022028802F441520B885B
:100F50004C8823438C882343CC8823430C89234328
:100F60004C8923438C892343CC8923431A43028031
:100F7000838B4FF2FF74234083830B8A038210BD5F
:100F80007047042808D14FF0E021096941F00401BD
:100F90004FF0E022116107E04FF0E021096921F0F4
:100FA00004014FF0E02211617047000000B50448D1
:100FB0000068401C0249086004F0ECF900BD000024
:100FC0009000002010B51548006840F470001349E7
:100FD00008601348006840F00100114908600020D3
:100FE0000F49083108600E4800680E4908400C4956
:100FF00008600D48091D0860081F006820F4802063
:10100000091F0860002006490C31086002F020FF2B
:101010004FF0006001498039086010BD88ED00E0A4
:1010200000380240FFFFF6FE1030002421B1028894
:1010300042F08002028004E002884FF67F731A407B
:101040000280704721B1028842F00102028004E070
:1010500002884FF6FE731A400280704731B1B0F833
:10106000442042F40042A0F8442005E0B0F84420B7
:10107000C2F30E02A0F844207047000070B50024AF
:1010800000220023058C4FF6FE7635400584028C45
:101090008388048B4FF68F752C40B51E2C400D882D
:1010A0002C43751E2A408D892A434D882A43104DB2
:1010B000A84202D00F4DA84213D14FF6F7752A402F
:1010C000CD892A434FF6FB752A408D882A434FF677
:1010D000FF652B404FF6FF552B400D8A2B434D8A61
:1010E0002B43838004838D684563028470BD0000B8
:1010F00000000140000401400A460021018B4FF628
:10110000F7731940114301837047000070B5002444
:1011100000220023058C4FF6EF7635400584028CC3
:101120008388048B48F6FF752C404FF6FF452C4012
:101130000D884FF6FF7606EA05252C434FF6DF753E
:101140002A408D8906EA05152A434D8806EA0515C9
:101150002A43154DA84202D0144DA8421DD14FF686
:101160007F752A40CD894FF6FF7606EA05152A439A
:101170004FF6BF752A408D8806EA05152A434FF6BB
:10118000FF352B404FF2FF752B400D8A06EA85058F
:101190002B434D8A06EA85052B43838004838D68A3
:1011A0008563028470BD000000000140000401401E
:1011B0000A460021018B4FF2FF7319404FF6FF736F
:1011C00003EA0223194301837047000070B500242D
:1011D00000220023058C4FF6FF6635400584028C03
:1011E0008388848B4FF68F752C404FF6FC752C400E
:1011F0000D882C434FF6FF552A408D894FF6FF7618
:1012000006EA05252A434D8806EA05252A43154D99
:10121000A84202D0144DA8421DD14FF2FF752A40BA
:10122000CD894FF6FF7606EA05252A434FF6FF35AE
:101230002A408D8806EA05252A434EF6FF752B4085
:101240004DF6FF752B400D8A06EA05152B434D8A96
:1012500006EA05152B43838084838D68C563028469
:1012600070BD000000000140000401400A4600215A
:10127000818B4FF6F773194011438183704700004B
:1012800070B5002200230024058C4EF6FF76354011
:101290000584038C8488828B48F6FF752A404FF6BC
:1012A000FF452A400D884FF6FF7606EA05252A43BA
:1012B0004DF6FF752B408D8906EA05352B434D8889
:1012C00006EA05352B430A4DA84202D0094DA84233
:1012D00008D14BF6FF752C400D8A4FF6FF7606EAD3
:1012E00085152C43848082838D680564038470BDDA
:1012F00000000140000401400A460021818B4FF2AA
:10130000FF7319404FF6FF7303EA022319438183E9
:1013100070474163704781637047C16370470164E0
:101320007047000000220288184B98420ED0184BDC
:1013300098420BD0B0F1804F08D0164B984205D0A0
:10134000154B984202D0154B984204D14FF68F733B
:101350001A404B881A43124B984207D0114B9842BF
:1013600004D04FF6FF431A400B891A4302804B68A2
:10137000C3620B880385054B984202D0044B984208
:1013800001D18B7A038601238382704700000140DC
:10139000000401400004004000080040000C004030
:1013A000001000400014004010B5024806F026F876
:1013B00010BD00008900002010B5024806F0D6F8E4
:1013C00010BD00008900002010B5024806F0E6F8C4
:1013D00010BD00008900002010B50022002340F657
:1013E0006A14A14200D100BF0A1201249440A3B2A2
:1013F000DC43048010BD21B1828942F40052828115
:1014000004E082894DF6FF731A40828170471AB159
:10141000838A0B43838202E0838A8B4383827047F3
:1014200010B504462548844208D101211020FFF759
:10143000BFFC00211020FFF7BBFC3EE020488442A7
:1014400009D101214804FFF793FC00214FF400303B
:10145000FFF78EFC31E01B48844209D1012188044A
:10146000FFF786FC00214FF48020FFF781FC24E089
:101470001548844209D10121C804FFF779FC0021F5
:101480004FF40020FFF774FC17E01048844209D1A4
:1014900001210805FFF76CFC00214FF48010FFF7D5
:1014A00067FC0AE00A48844207D101212020FFF7A7
:1014B0007FFC00212020FFF77BFC10BD00100140C5
:1014C0000044004000480040004C004000500040F4
:1014D0000014014002460020B1F5007F00D100BF9A
:1014E00013880B400BB1012000E00020704770B55D
:1014F0000246002400230025002040F66A16B1426F
:1015000000D100BFC1F3421501F01F03012606FA06
:1015100003F3012D02D19689334006E0022D02D15A
:10152000168A334001E0968A33400C12012606FAEF
:1015300004F41688344013B10CB1012000E00020FF
:1015400070BDF0B50346002400260025002040F6BB
:101550006A17B94200D100BF1846C1F3421401F026
:101560001F06012707FA06F5012C01D10C3004E013
:10157000022C01D1103000E014301AB107682F435B
:10158000076002E00768AF430760F0BD2DE9FF4741
:1015900005460E460024A14600BFA046B08900B112
:1015A00000BF2C8A24F44054F08804432C82AC8978
:1015B00041F20C608443B088318908437189084343
:1015C0000443AC81AC8A24F44074B0890443AC82F7
:1015D0006846FFF7FDFB2048854202D01F48854240
:1015E00002D1DDF80C9001E0DDF80890A88900F444
:1015F000004040B109EBC90000EB09103168490017
:10160000B0FBF1F707E009EBC90000EB0910316806
:101610008900B0FBF1F76420B7FBF0F0040120096A
:10162000642101FB1078A88900F4004040B1322009
:1016300000EBC800B0FBF1F000F00700044308E045
:10164000322000EB08106421B0FBF1F000F00F0035
:1016500004432C81BDE8FF870010014000140140C5
:1016600001468888C0F308007047C1F308028280F1
:10167000704700BFFEE700001548C089401C1449B0
:10168000C88108468088401C00B288800846C0880F
:10169000401C00B2C88008460089401C00B2088186
:1016A00008464089401C00B2488108468089401C99
:1016B00000B2888108460078012804D108464078A5
:1016C000401C487002E0012001490870704700008A
:1016D000A81200202DE9F34F2DED028BA7B0814613
:1016E000902203A82A99FEF76DFD002504E0681CEE
:1016F00040B201A948556D1C062DF8DB0026BCE060
:10170000C6EBC60A0024D34603A800EB8A00D0ED3E
:10171000000AB0EE600A0AF055F9B0EE408A0225E0
:1017200015E00BF1010B03A800EB8B00D0ED000AD4
:10173000B0EE600A0AF046F9F0EE408AF4EEC88A8C
:10174000F1EE10FA02DD6C1EB0EE688A6D1CC6F177
:101750000600A842E5DA0AEB040003A901EB8000C9
:1017600090ED000AB5EEC00AF1EE10FA40D024B3B5
:101770003019401C40B201A98855B34634440025B5
:1017800019E003A800EB8B0090ED000AB0EE408A50
:1017900003A800EB840090ED000A03A800EB8B0087
:1017A00080ED000A03A800EB840080ED008A0BF1B5
:1017B000060BA41D6D1C062DE3DBAAEB0600851DA0
:1017C0000AF1010711E003A800EB870090ED000A81
:1017D00003A800EB8A00D0ED000A80EE201A03A8CF
:1017E00000EB870080ED001A7F1C781CA842EADD20
:1017F000D0460AF106040120009038E003A800EB6F
:10180000840090ED000AB0EE408A03A800EB84004B
:1018100090ED000AB5EEC00AF1EE10FA21D00AF1FF
:10182000010BA8EB060000F10C0508F1070715E015
:1018300003A800EB870090ED000A03A800EB8B00E3
:10184000D0ED000AB1EE481A00EE810A03A800EBC1
:10185000870080ED000A0BF1010B7F1C781CA84269
:10186000E6DDA41D08F106080098401C0090C6F1B2
:10187000050100988142C1DA761C052EFFF640AFC3
:1018800000265CE006EB46004FEA800806EB4600C7
:101890004400012531E0681E00EB4000800000900C
:1018A0002819401E03A901EB800090ED000AB5EE57
:1018B000C00AF1EE10FA1FD000271BE007EB08006A
:1018C00009EB800090ED000A2819401E03A901EBE6
:1018D0008000D0ED000A0098384409EB800090EDBC
:1018E000001A00EEC10A07EB080009EB800080ED4A
:1018F000000A7F1C0C2FE1DB6D1CB542CBDD3019DB
:1019000003A901EB800090ED000AF7EE000A80EEDB
:10191000801AB0EE418A00270EE007EB080009EBC1
:10192000800090ED000A20EE080A07EB080009EBA2
:10193000800080ED000A7F1C0C2FEEDB761C062E4B
:10194000A0DB05263CE006EB46004FEA800806EBEC
:1019500046004000441EB51C2FE0681E00EB40000E
:1019600080000090281903A901EB800090ED000A87
:10197000B5EEC00AF1EE10FA1ED000271AE007EB10
:10198000080009EB800090ED000A281903A901EB7B
:101990008000D0ED000A0098384409EB800090EDFB
:1019A000001A00EEC10A07EB080009EB800080ED89
:1019B000000A7F1C0C2FE2DB6D1C072DCDDB761E91
:1019C000002EC0DA04242FE001A80157601C8142D8
:1019D00029D04FF0000823E00C2000FB048009EB25
:1019E000800090ED000AB0EE408A01A80057401E2A
:1019F0000C2111FB008009EB800090ED000A01FB37
:101A0000048009EB800080ED000A01A80057401E09
:101A100011FB008009EB800080ED008A08F10108CD
:101A2000B8F10C0FD8DB641E002CCDDA27B0BDEC6A
:101A3000028BBDE8FC8F000010B52DED028B03205A
:101A400002F0C6F9B0EE408A094806F079F8094874
:101A500005F06CFEB0EE480A074806F099FCB0EEBF
:101A6000480A064809F018FABDEC028B10BD0000C8
:101A700058130020B812002000000020DC100020C5
:101A800010B503F06BFA10BD10B5B7EE000A0248AE
:101A900005F03EFC10BD00002C2800202DE9FF4F72
:101AA0002DED080B2DED0C8BADF6844D9046B0EE70
:101AB000409A9A46B0EE60BAF0EE41BAB0EE61CA12
:101AC000F0EE42CAF0EE628AF0EE439AB0EE63AAFC
:101AD000DDF818BDDDF8149DFB48007838B9FB49E6
:101AE000DDF8080D03F024F80121F7480170002506
:101AF00008E09FEDF70ADDF81C0D00EB850080ED96
:101B0000000A6D1C042DF4DBDDF8D80C01287CD113
:101B1000F04890ED030A0DF5406080ED1E0AED4897
:101B200090ED040A0DF5406080ED1F0AE94890ED44
:101B3000050A0DF5406080ED200A002429E09FEDA4
:101B4000E40A0DF66C4000EB840080ED000A0025ED
:101B50001CE00DF66C4000EB840090ED000A0320C1
:101B600000FB0541DDF8080D00EB8100D0ED000A17
:101B70000DF6784101EB850090ED001A00EE810A28
:101B80000C3901EB840080ED000A6D1C032DE0DBB5
:101B9000641C032CD3DBCF4890ED030A0DF54060A5
:101BA00080ED180ACB4890ED040A0DF5406080EDF9
:101BB000190AC84890ED050A0DF5406080ED1A0A33
:101BC000C44890ED040A0DF54060D0ED1D0A20EEEA
:101BD000200AC048D0ED050A0DF5406090ED1C1AB2
:101BE00000EEC10A80ED150ABA4890ED050A0DF520
:101BF0004060D0ED1B0A20EE200AB648D0ED030A63
:101C00000DF5406090ED1D1A00E082E000EEC10A83
:101C100080ED160AAF4890ED030A0DF54060D0ED57
:101C20001C0A20EE200AAB48D0ED040A0DF54060F6
:101C300090ED1B1A00EEC10A80ED170A00240EE099
:101C40000DF6544000EB840090ED000AB1EE400A1E
:101C50000DF6484000EB840080ED000A641C032C64
:101C6000EEDB9C4890ED030A0DF5406080ED0F0A15
:101C7000984890ED040A0DF5406080ED100A9548F3
:101C800090ED050A0DF5406080ED110A00243DE05D
:101C90009FED8F0A0DF6784000EB840080ED000A7E
:101CA00000251CE00DF6784000EB840090ED000A62
:101CB000032000FB0541854800EB8100D0ED000AC0
:101CC0000DF6484000EB850090ED001A00EE810A09
:101CD0000DF6784000EB840080ED000A6D1C032DAA
:101CE000E0DB0DF63C4000EB840090ED000A0DF6C1
:101CF000784000EB8400D0ED000A00EE890A0DF573
:101D0000436101EB840080ED000A641C032CBFDBFF
:101D100014E0704890ED030A0DF5406080ED0C0A68
:101D20006C4890ED040A0DF5406080ED0D0A69489D
:101D300090ED050A0DF5406080ED0E0A9FED640AF6
:101D40000DF5406080ED030A624890ED020AB1EEA5
:101D5000400A0DF5406080ED040A5E4890ED010AEE
:101D60000DF5406080ED050A5A4890ED020A0DF528
:101D7000406080ED060A9FED560A80ED070A55483F
:101D800090ED000AB1EE400A0DF5406080ED080AC2
:101D9000504890ED010AB1EE400A0DF5406080ED2B
:101DA000090A4C4890ED000A0DF5406080ED0A0AE2
:101DB0009FED470A80ED0B0ADDF8D40C01286BD1AA
:101DC000002422E000251DE0032000FB04504249CE
:101DD000085600EE100AB8EEC00A032000FB0450BB
:101DE0000DF60C4101EB8000D0ED000A00EE890AEF
:101DF000032000FB04510DF6E83000EB810080ED7C
:101E0000000A6D1C032DDFDB641C032CDADB314878
:101E100090ED060A0DF5006080EDF70A2D4890ED73
:101E2000070A0DF5006080EDF80A2A4890ED080ACF
:101E30000DF5006080EDF90A00242AE09FED240AE8
:101E40000DF66C4000EB840080ED000A00251DE0DB
:101E50000DF66C4000EB840090ED000A032000FBBF
:101E600005400DF6E83101EB8000D0ED000A0DF6DB
:101E7000DC3000EB850090ED001A00EE810A0DF6D3
:101E80006C4000EB840080ED000A6D1C032DDFDB4D
:101E9000641C032CD2DBC3E029EE090AF0EE000A31
:101EA00080EE208A002445E0002540E09FED080AEE
:101EB000032000FB05400DF6E83101EB800080EDCA
:101EC000000A002630E000004900002088060020BB
:101ED00000000000AC06002080CA0008032000FBC0
:101EE00005400DF6E83101EB800090ED000A03207B
:101EF00000FB0640243101EB8000D0ED000A0320F6
:101F000000FB05610DF60C4000EB810090ED001A1E
:101F100000EE810A032000FB05410DF6E83000EBDE
:101F2000810080ED000A761C032ED7DB6D1C032D8B
:101F3000BCDB641C032CB7DB00242BE0002526E06F
:101F4000032000FB0450FE49085600EE100AB8EECC
:101F5000C00A032000FB04500DF60C4101EB800089
:101F6000D0ED000A00EE890A032000FB045024395A
:101F700001EB8000D0ED000A08EE200A032000FBF0
:101F80000450303901EB800080ED000A6D1C032DF8
:101F9000D6DB641C032CD1DBEA4890ED060A0DF574
:101FA000006080EDF70AE74890ED070A0DF5006044
:101FB00080EDF80AE34890ED080A0DF5006080ED29
:101FC000F90A00242AE01FED3E0A0DF66C4000EBF2
:101FD000840080ED000A00251DE00DF66C4000EB4A
:101FE000840090ED000A032000FB05400DF6B83197
:101FF00001EB8000D0ED000A0DF6DC3000EB85002F
:1020000090ED001A00EE810A0DF66C4000EB8400A2
:1020100080ED000A6D1C032DDFDB641C032CD2DB7A
:10202000DDF8D40C01286BD1002422E000251DE04E
:10203000032000FB0450C249085600EE100AB8EE17
:10204000C00A032000FB04500DF60C4101EB800098
:10205000D0ED000A00EE890A032000FB04510DF6C2
:10206000E83000EB810080ED000A6D1C032DDFDB02
:10207000641C032CDADBB34890ED090A0DF500600F
:1020800080EDEB0AAF4890ED0A0A0DF5006080ED97
:10209000EC0AAC4890ED0B0A0DF5006080EDED0AFE
:1020A00000242AE01FED760A0DF5466000EB84005F
:1020B00080ED000A00251DE00DF5466000EB840070
:1020C00090ED000A032000FB05400DF6E83101EB1E
:1020D0008000D0ED000A0DF6AC3000EB850090EDED
:1020E000001A00EE810A0DF5466000EB840080EDD9
:1020F000000A6D1C032DDFDB641C032CD2DBBCE06B
:1021000029EE090AF0EE000A80EE201AB0EE418AAC
:1021100000243AE0002535E01FED930A032000FB80
:1021200005400DF6E83101EB800080ED000A002645
:1021300025E0032000FB05400DF6E83101EB8000AF
:1021400090ED000A032000FB0640243101EB8000E3
:10215000D0ED000A032000FB05610DF60C4000EBFA
:10216000810090ED001A00EE810A032000FB05417A
:102170000DF6E83000EB810080ED000A761C032E9E
:10218000D7DB6D1C032DC7DB641C032CC2DB0024D2
:102190002DE0002528E0032000FB0451684840564C
:1021A00000EE100AB8EEC00A032000FB04500DF642
:1021B0000C4101EB8000D0ED000A00EE890A0320FB
:1021C00000FB04510DF6E83000EB8100D0ED000A71
:1021D00008EE200A032000FB04500DF6B83101EB95
:1021E000800080ED000A6D1C032DD4DB641C032CE1
:1021F000CFDB544890ED090A0DF5006080EDEB0A45
:10220000504890ED0A0A0DF5006080EDEC0A4D484B
:1022100090ED0B0A0DF5006080EDED0A00242AE038
:102220001FEDD50A0DF5466000EB840080ED000A35
:1022300000251DE00DF5466000EB840090ED000ADE
:10224000032000FB05410DF6B83000EB8100D0ED16
:10225000000A0DF6AC3000EB850090ED001A00EEA0
:10226000810A0DF5466000EB840080ED000A6D1CCC
:10227000032DDFDB641C032CD2DB324890ED000A17
:102280000DF54060D0ED0C0A09EE200A0DF5006056
:1022900080EDDF0A2B4890ED010A0DF54060D0ED8E
:1022A0000D0A09EE200A0DF5006080EDE00A2548D0
:1022B00090ED020A0DF54060D0ED0E0A09EE200AFD
:1022C0000DF5006080EDE10A00250DE00DF543609D
:1022D00000EB850090ED000A0DF67C31E81C01EB67
:1022E000800080ED000A6D1C032DEFDB00250DE062
:1022F0000DF66C4000EB850090ED000A0DF67C3188
:10230000A81D01EB800080ED000A6D1C032DEFDBA2
:1023100000250EE00DF5466000EB850090ED000A0B
:102320000DF67C3105F1090001EB800080ED000A1B
:102330006D1C032DEEDB90210DF6EC2004E0000077
:1023400080CA0008AC060020FDF755FF00252DE0EF
:1023500001200C2101FB05510DF6EC225054002404
:1023600011E0032000FB0540FE49085600EE100A6C
:10237000B8EEC00A0C2000FB0541FB4800EB8100D1
:1023800080ED000A641C032CEBDB00240BE09FEDC6
:10239000F70A0C2000FB0540C01CF34901EB80004C
:1023A00080ED000A641C032CF1DB6D1C0C2DCFDBCF
:1023B0009FEDEE0AEC4880ED060AED4890ED080A24
:1023C000E94880ED070AEA4890ED070AB1EE400AB5
:1023D000E54880ED080AE64890ED080AB1EE400AAB
:1023E000E14880ED120A9FEDE10A80ED130AE04812
:1023F00090ED060ADC4880ED140ADD4890ED070AEE
:10240000D94880ED1E0ADA4890ED060AB1EE400A7E
:10241000D54880ED1F0A9FEDD50A80ED200A0024E3
:1024200011E000250CE09FEDD10AE01C0C2101FB1E
:102430000050801DCC4901EB800080ED000A6D1C2E
:10244000032DF0DB641C032CEBDB002418E00025DB
:1024500013E0032000FB04510DF60C4000EB81005B
:1024600090ED000AA01D0C2101FB0050801DBE490B
:1024700001EB800080ED000A6D1C032DE9DB641C7C
:10248000032CE4DB002412E000250DE09FEDB70AE9
:1024900004F109000C2101FB0050801DB24901EB41
:1024A000800080ED000A6D1C032DEFDB641C032C03
:1024B000EADB9FEDAE0AAC4880ED090AAC4890ED2E
:1024C0000B0AA94880ED0A0AA94890ED0A0AB1EE64
:1024D000400AA54880ED0B0AA54890ED0B0AB1EE25
:1024E000400AA14880ED150A9FEDA00A80ED160A6A
:1024F0009F4890ED090A9C4880ED170A9C4890ED92
:102500000A0A994880ED210A994890ED090AB1EE2E
:10251000400A954880ED220A9FED940A80ED230A37
:10252000002411E000250CE09FED900AE01C0C2136
:1025300001FB005009308C4901EB800080ED000A5E
:102540006D1C032DF0DB641C032CEBDB002411E07D
:1025500000250CE09FED850AA01D0C2101FB005019
:102560000930814901EB800080ED000A6D1C032DCC
:10257000F0DB641C032CEBDB002419E0002514E0E5
:10258000032000FB04500DF60C4101EB800090EDA0
:10259000000A04F109000C2101FB005009307249C6
:1025A00001EB800080ED000A6D1C032DE8DB641C4C
:1025B000032CE3DB002421E000251CE00C2000FBC1
:1025C00004510DF6EC20405600EE100AB8EEC00A99
:1025D0000C2000FB0450644901EB8000D0ED000AA0
:1025E00000EE890A0C2000FB0451624800EB8100D8
:1025F00080ED000A6D1C0C2DE0DB641C0C2CDBDB79
:102600005D480078A0BB0DF5006080EDAFBA80EDAD
:10261000B0BA80EDB1BAC0EDB2BAC0EDB3BAC0ED98
:10262000B4BA80EDB5CA80EDB6CA80EDB7CAC0EDC8
:10263000B8CAC0EDB9CAC0EDBACA4FF410714F485C
:10264000FDF7D9FD00250EE00DF6BC2000EB85005E
:1026500090ED000A0C2000FB0551484800EB81007A
:1026600080ED000A6D1C0C2DEEDB01204249087044
:10267000002436E0002531E09FED3C0A0C2000FBF1
:102680000541394800EB810080ED000A002622E078
:102690000C2000FB0541344800EB810090ED000A5E
:1026A0000C2000FB0640334901EB8000D0ED000A0E
:1026B0000C2000FB0561324800EB810090ED001A10
:1026C00000EE810A0C2000FB0540274901EB800049
:1026D00080ED000A761C0C2EDADB6D1C0C2DCBDB9A
:1026E000641C0C2CC6DB002437E0002532E09FED93
:1026F0001F0AB0EE408A002616E00C2000FB0640C0
:10270000194901EB8000D0ED000A0C2000FB0651B6
:10271000184800EB810090ED001AB0EE480A00EE78
:10272000810AB0EE408A761C0C2EE6DB0C2000FB02
:102730000540124901EB800090ED000A30EE080AD6
:102740000C2000FB05410DF67C0000EB810080EDC4
:10275000000A6D1C0C2DCADB641C0C2CC5DB98F820
:1027600000000FE089CA00085C0B00200000000098
:10277000AC0600209C0D00204A0000201C0900200F
:10278000DC06002001287DD198F801000128FAD14B
:1027900098F802000128F6D1002478E0002536E000
:1027A0001FED0E0A092000FB05410DF2CC6000EB85
:1027B000810080ED000A002626E0092000FB05418B
:1027C0000DF2CC6000EB810090ED000A092000FBC7
:1027D0000641FE48405600EE900AF8EEE00A0C2052
:1027E00000FB05600DF67C0101EB800090ED001A06
:1027F00000EE810A092000FB05410DF2CC6000EBE0
:10280000810080ED000A761C0C2ED6DB6D1C0C2D91
:10281000C6DB002538E01FED2B0A092000FB05412F
:102820000DF5B16000EB810080ED000A002626E086
:10283000092000FB05410DF5B16000EB810090ED32
:10284000000A092000FB06400DF2CC6101EB80007C
:1028500090ED001A0C2000FB0561DD48405600EEAB
:10286000900AF8EEE00A01EE200A092000FB05417B
:102870000DF5B16000EB810080ED000A761C0C2E96
:10288000D6DB00E073E16D1C092DC4DB641C092C50
:1028900084DB0DF58060C0ED598AC0ED5A8AC0ED29
:1028A0005B8AC0ED5C9AC0ED5D9AC0ED5E9A80EDEA
:1028B0005FAA80ED60AA80ED61AA002416E004EB17
:1028C00084000DF5B16101EBC00090ED000A0DF23E
:1028D000645000EB8400D0ED000A30EE200A0DF6C3
:1028E0000C4000EB840080ED000A641C092CE6DB40
:1028F00000240EE00DF60C4000EB840090ED000A81
:1029000004EB84000DF5B16101EBC00080ED000A1D
:10291000641C092CEEDB002438E0002533E01FEDB9
:102920006D0A0C2000FB0540EDA901EB800080ED55
:10293000000A002624E00C2000FB0540EDA901EB75
:10294000800090ED000A0C2000FB06400DF67C0193
:1029500001EB800090ED001A0C2000FB05609C4903
:10296000085600EE900AF8EEE00A01EE200A0C206C
:1029700000FB0540EDA901EB800080ED000A761C0C
:102980000C2ED8DB6D1C092DC9DB641C0C2CC4DBA0
:102990000DF5B161EDA802F049FB00242AE01FED1E
:1029A0008D0AB0EE408A002515E0092000FB0540A5
:1029B0008649085600EE100AF8EEC00A0DF67C3083
:1029C00000EB850090ED001AB0EE480A00EE810A97
:1029D000B0EE408A6D1C0C2DE7DB0AEB840090ED15
:1029E000000A30EE480A0DF60C4101EB840080ED40
:1029F000000A641C092CD2DB00242AE01FEDA50A82
:102A0000B0EE408A002514E00C2000FB0540EDA943
:102A100001EB8000D0ED000A0DF60C4000EB8500C4
:102A200090ED001AB0EE480A00EE810AB0EE408A3E
:102A30006D1C092DE8DB0DF67C3101EB840090ED77
:102A4000000A30EE080A634901EB840080ED000AB9
:102A5000641C0C2CD2DB90210DF6EC20FDF7CBFB97
:102A6000002507E001200C2101FB05520DF6EC21A9
:102A700088546D1C0C2DF5DB002439E0002534E072
:102A80001FEDC60AB0EE408A002617E00C2000FBBE
:102A90000640EDA901EB8000D0ED000A092000FB03
:102AA00005604A49085600EE100AB8EEC01AB0EEAA
:102AB000480A00EE810AB0EE408A761C092EE5DB5A
:102AC0000C2000FB05400DF6EC21085600EE100A24
:102AD000B8EEC00A30EE480A0C2000FB05403E4923
:102AE00001EB800080ED000A6D1C0C2DC8DB641C1E
:102AF0000C2CC3DB002437E0002532E01FEDE50A93
:102B00000C2000FB0540354901EB800080ED000AF8
:102B1000002623E00C2000FB0540304901EB80003B
:102B200090ED000A0C2000FB06412B4800EB8100D1
:102B3000D0ED000A0C2000FB05600DF67C0101EBD6
:102B4000800090ED001A00EE810A0C2000FB054089
:102B5000224901EB800080ED000A761C0C2ED9DBA7
:102B60006D1C0C2DCADB641C0C2CC5DBEBE398F848
:102B7000000001287DD198F801000028FAD198F8CA
:102B800002000028F6D1002483E0002542E09FEDFA
:102B9000140A032000FB0540C9A901EB800080ED69
:102BA000000A002633E0032000FB0540C9A901EB21
:102BB000800090ED000A032000FB064009490856FA
:102BC00000EE900AF8EEE00A0C200DE0ADCA000815
:102BD00019CB0008AC0600205C0B0020DC060020AE
:102BE0000000000085CB000800FB05600DF67C01AD
:102BF00001EB800090ED001A00EE810A032000FB3B
:102C00000540C9A901EB800080ED000A761C0C2E5E
:102C1000C9DB6D1C0C2DBADB002537E01FED100A57
:102C2000032000FB05400DF60C4101EB800080ED18
:102C3000000A002627E0032000FB05400DF60C41AA
:102C400001EB800090ED000A032000FB0640C9A9BB
:102C500001EB800090ED001A0C2000FB0560FE499E
:102C6000085600EE900AF8EEE00A01EE200A032072
:102C700000E069E300FB05400DF60C4101EB80002C
:102C800080ED000A761C0C2ED5DB6D1C032DC5DBF8
:102C9000641C032CFFF679AFCDEDC68ACDEDC78A53
:102CA000CDEDC88A002413E00DF60C4101EB0410B1
:102CB00090ED000AC6A800EB8400D0ED000A30EECB
:102CC000200A0DF6544000EB840080ED000A641CDD
:102CD000032CE9DB00240CE00DF6544000EB8400EB
:102CE00090ED000A0DF60C4101EB041080ED000A96
:102CF000641C032CF0DB002438E0002533E01FEDDA
:102D0000480A0C2000FB0540A2A901EB800080EDE1
:102D1000000A002624E00C2000FB0540A2A901EBDC
:102D2000800090ED000A0C2000FB06410DF67C00AF
:102D300000EB810090ED001A0C2000FB0560C649F5
:102D4000085600EE900AF8EEE00A01EE200A0C2088
:102D500000FB0540A2A901EB800080ED000A761C73
:102D60000C2ED8DB6D1C032DC9DB641C0C2CC4DBC2
:102D70000026012402270DF54060D0ED030AB0EED5
:102D8000600A08F01FFEB0EE408A0DF54060D0EDFD
:102D9000040AB0EE600A08F015FEF0EE40AAB0EEAC
:102DA0006A0AB4EEC80AF1EE10FA03DDB0EE6A8AE0
:102DB000012600240DF54060D0ED050AB0EE600A52
:102DC00008F000FEB4EEC80AF1EE10FA02DD0226A9
:102DD000012400270DF60C4000EB840090ED000A62
:102DE0000DF60C4000EB8600D0ED000A80EE201AB4
:102DF0000DF60C4000EB840080ED001A0DF60C403F
:102E000000EB870090ED000A0DF60C4000EB860009
:102E1000D0ED000A80EE201A0DF60C4000EB870082
:102E200080ED001AE01C0DF60C4101EB800090EDE6
:102E3000000A084600EB8400D0ED000AF01C01EB0C
:102E4000800090ED001A00EEC10AE01C01EB80004A
:102E500080ED000AF81C01EB800090ED000A0846A6
:102E600000EB8700D0ED000AF01C01EB800090ED34
:102E7000001A00EEC10AF81C01EB800080ED000A88
:102E8000A01D01EB800090ED000A084600EB8400D5
:102E9000D0ED000AB01D01EB800090ED001A00EEAD
:102EA000C10AA01D01EB800080ED000AB81D01EBF6
:102EB000800090ED000A084600EB8700D0ED000A84
:102EC000B01D01EB800090ED001A00EEC10AB81DA4
:102ED00001EB800080ED000AF81C01EB8000D0EDD2
:102EE000000AB0EE600A08F06DFDB0EE40DAE01CBA
:102EF0000DF60C4101EB8000D0ED000AB0EE600A47
:102F000008F060FDB4EEC0DAF1EE10FA02DD2546FD
:102F10003C462F46F81C0DF60C4101EB800090ED6D
:102F2000000AE01C01EB8000D0ED000A80EE201AC0
:102F3000F81C01EB800080ED001AB81D01EB800049
:102F400090ED000AF81C01EB8000D0ED000AA01DF6
:102F500001EB800090ED001A00EEC10AB81D01EBF4
:102F6000800080ED000A002501E1A2A800EB8500A9
:102F700090ED000A0DF60C4000EB8600D0ED000A43
:102F800080EE201A0C2000FB0650C9A901EB80003E
:102F900080ED001A05F10C00A2A901EB800090ED74
:102FA000000A0C2000FB0651C9A800EB8100D0EDFF
:102FB000000AF01C0DF60C4101EB800090ED001AA8
:102FC00000EEC10A0C2000FB0450C9A901EB8000EF
:102FD00080ED000A05F11800A2A901EB800090ED38
:102FE000000A0C2000FB0650C9A901EB8000D0EDBF
:102FF000000AB01D0DF60C4101EB800090ED001AA7
:1030000000EEC10A0C2000FB0750C9A901EB8000AB
:1030100080ED000A0C2000FB045001EB800090EDD5
:10302000000AE01C0DF60C4101EB8000D0ED000A17
:1030300080EE201A0C2000FB0450C9A901EB80008F
:1030400080ED001A0C2000FB075001EB800090ED92
:10305000000A0C2002E00000A9CB000800FB04508D
:1030600001EB8000D0ED000AA01D0DF60C4101EB34
:10307000800090ED001A00EEC10A0C2000FB075002
:10308000C9A901EB800080ED000A0C2000FB07506D
:1030900001EB800090ED000AB81D0DF60C4101EB2C
:1030A0008000D0ED000A80EE201A0C2000FB0750B3
:1030B000C9A901EB800080ED001A0C2000FB045030
:1030C00001EB800090ED000A0C2000FB075001EBA3
:1030D0008000D0ED000AF81C0DF60C4101EB8000D9
:1030E00090ED001A00EEC10A0C2000FB0450C9A9A3
:1030F00001EB800080ED000A0C2000FB065001EB84
:10310000800090ED000A0C2000FB075001EB8000CE
:10311000D0ED000A0DF60C4000EB870090ED001A90
:1031200000EEC10A0C2000FB065001EB800080ED90
:10313000000A0C2000FB065001EB800090ED000A15
:103140000C2000FB045001EB8000D0ED000A0DF6CE
:103150000C4000EB840090ED001A00EEC10A0C2038
:1031600000FB065001EB800080ED000A6D1C0C2D69
:10317000FFF6FBAE00242AE09FEDFE0AB0EE408A87
:10318000002515E0032000FB0540FB49085600EE32
:10319000100AF8EEC00A0DF67C3000EB850090EDC9
:1031A000001AB0EE480A00EE810AB0EE408A6D1CAB
:1031B0000C2DE7DB0AEB840090ED000A30EE480AA4
:1031C0000DF6544101EB840080ED000A641C032CD1
:1031D000D2DB00242AE09FEDE70AB0EE408A00250A
:1031E00014E00C2000FB0540C9A901EB8000D0EDE4
:1031F000000A0DF6544000EB850090ED001AB0EE89
:10320000480A00EE810AB0EE408A6D1C032DE8DB0F
:103210000DF67C3101EB840090ED000A30EE080AD7
:10322000D64901EB840080ED000A641C0C2CD2DB33
:1032300090210DF6EC20FCF7DEFF002507E00120D1
:103240000C2101FB05510DF6EC2250546D1C0C2D88
:10325000F5DB002439E0002534E09FEDC60AB0EE2E
:10326000408A002617E00C2000FB0640C9A901EBAC
:103270008000D0ED000A032000FB0560BE4908561F
:1032800000EE100AB8EEC01AB0EE480A00EE810A4D
:10329000B0EE408A761C032EE5DB0C2000FB0540D7
:1032A0000DF6EC21085600EE100AB8EEC00A30EE1A
:1032B000480A0C2000FB0540B14901EB800080ED7D
:1032C000000A6D1C0C2DC8DB641C0C2CC3DB002415
:1032D00037E0002532E09FEDA70A0C2000FB0540F7
:1032E000A84901EB800080ED000A002623E00C20B5
:1032F00000FB0540A34901EB800090ED000A0C2083
:1033000000FB06409E4901EB8000D0ED000A0C2036
:1033100000FB05600DF67C0101EB800090ED001ACA
:1033200000EE810A0C2000FB0540964901EB80006D
:1033300080ED000A761C0C2ED9DB6D1C0C2DCADB2F
:10334000641C0C2CC5DBFCE398F8000001287CD140
:1033500098F801000128FAD198F802000028F6D167
:1033600000246FE0002533E09FED820A062000FB79
:1033700005405AA901EB800080ED000A002624E0F8
:10338000062000FB05405AA901EB800090ED000AE1
:10339000062000FB06407C49085600EE900AF8EE35
:1033A000E00A0C2000FB05600DF67C0101EB8000BB
:1033B00090ED001A00EE810A062000FB05405AA994
:1033C00001EB800080ED000A761C0C2ED8DB6D1C12
:1033D0000C2DC9DB002532E09FED660A062000FBBC
:1033E0000540C9A901EB800080ED000A002623E01A
:1033F000062000FB0540C9A901EB800090ED000A02
:10340000062000FB06405AA901EB800090ED001A4F
:103410000C2000FB05605D49085600EE900AF8EEAE
:10342000E00A01EE200A062000FB0540C9A901EBD5
:10343000800080ED000A761C0C2ED9DB6D1C062D59
:10344000CADB641C062C8DDB00E06CE1CDED548AF8
:10345000CDED558ACDED568ACDED579ACDED589AE2
:10346000CDED599A002413E0C4EBC400C9A901EBC7
:10347000800090ED000A54A800EB8400D0ED000A13
:1034800030EE200A4EA800EB840080ED000A641C98
:10349000062CE9DB00240CE04EA800EB840090ED44
:1034A000000AC4EBC400C9A901EB800080ED000A4A
:1034B000641C062CF0DB002438E0002533E09FED8F
:1034C0002D0A0C2000FB054006A901EB800080EDD1
:1034D000000A002624E00C2000FB054006A901EBB1
:1034E000800090ED000A0C2000FB06400DF67C01E8
:1034F00001EB800090ED001A0C2000FB05602349D1
:10350000085600EE900AF8EEE00A01EE200A0C20C0
:1035100000FB054006A901EB800080ED000A761C47
:103520000C2ED8DB6D1C062DC9DB641C0C2CC4DBF7
:10353000C9A906A8FEF7CEF8002438E09FED0D0AD1
:10354000B0EE408A002524E0062000FB05400E492D
:10355000085600EE100AF8EEC00A0DF67C3000EBBB
:10356000850090ED001AB0EE480A00EE810AB0EE38
:10357000408A0DE00000000085CB0008AC0600206A
:103580005C0B0020DC060020CDCB000815CC000829
:103590006D1C0C2DD8DB0AEB840090ED000A30EE98
:1035A000480A54A901EB840080ED000A641C062C33
:1035B000C4DB002429E01FED110AB0EE408A00258B
:1035C00013E00C2000FB054006A901EB8000D0EDC4
:1035D000000A54A800EB850090ED001AB0EE480AEE
:1035E00000EE810AB0EE408A6D1C062DE9DB0DF677
:1035F0007C3101EB840090ED000A30EE080AF749B7
:1036000001EB840080ED000A641C0C2CD3DB9021BC
:103610000DF6EC20FCF7EFFD002507E001200C2162
:1036200001FB05520DF6EC2188546D1C0C2DF5DBC9
:10363000002439E0002534E01FED320AB0EE408A64
:10364000002617E00C2000FB064006A901EB8000D5
:10365000D0ED000A062000FB0560E149085600EEA7
:10366000100AB8EEC01AB0EE480A00EE810AB0EEB9
:10367000408A761C062EE5DB0C2000FB05400DF68B
:10368000EC21085600EE100AB8EEC00A30EE480AE7
:103690000C2000FB0541D34800EB810080ED000ABF
:1036A0006D1C0C2DC8DB641C0C2CC3DB002437E024
:1036B000002532E01FED510A0C2000FB0540CA49ED
:1036C00001EB800080ED000A002623E00C2000FBC7
:1036D0000540C54901EB800090ED000A0C2000FB7D
:1036E0000640C04901EB8000D0ED000A0C2000FB31
:1036F00005610DF67C0000EB810090ED001A00EEF4
:10370000810A0C2000FB0540B74901EB800080EDE9
:10371000000A761C0C2ED9DB6D1C0C2DCADB641C38
:103720000C2CC5DB33E298F8000001287ED198F814
:1037300001000028FAD198F802000128F6D10024EF
:103740006FE0002533E01FED750A062000FB054001
:103750005AA901EB800080ED000A002624E0062033
:1037600000FB05405AA901EB800090ED000A0620FD
:1037700000FB06409D49085600EE900AF8EEE00A6C
:103780000C2000FB05600DF67C0101EB800090ED44
:10379000001A00EE810A062000FB05405AA901EB41
:1037A000800080ED000A761C0C2ED8DB6D1C0C2DE1
:1037B000C9DB002532E01FED910A062000FB054021
:1037C000C9A901EB800080ED000A002623E0062055
:1037D00000FB0540C9A901EB800090ED000A06201E
:1037E00000FB06405AA901EB800090ED001A0C2066
:1037F00000FB05607E49085600EE900AF8EEE00AEC
:1038000001EE200A062000FB0540C9A901EB80005B
:1038100080ED000A761C0C2ED9DB6D1C062DCADB50
:10382000641C062C8DDBCDED548A00E098E1CDEDD3
:10383000558ACDED568A8DED57AA8DED58AA8DED9E
:1038400059AA002413E0C4EBC400C9A901EB80000D
:1038500090ED000A54A800EB8400D0ED000A30EE91
:10386000200A4EA800EB840080ED000A641C062CA0
:10387000E9DB00240CE04EA800EB840090ED000A88
:10388000C4EBC400C9A901EB800080ED000A641CF0
:10389000062CF0DB002438E0002533E01FEDCB0AD6
:1038A0000C2000FB054006A901EB800080ED000A1A
:1038B000002624E00C2000FB054006A901EB800057
:1038C00090ED000A0C2000FB06400DF67C0101EB98
:1038D000800090ED001A0C2000FB0560444908565A
:1038E00000EE900AF8EEE00A01EE200A0C2000FB40
:1038F000054006A901EB800080ED000A761C0C2E25
:10390000D8DB6D1C062DC9DB641C0C2CC4DBC9A9DB
:1039100006A8FDF7DFFE002409E00AEB840090ED25
:10392000000A54A800EB840080ED000A641C032CFC
:10393000F3DB00240BE0A01D0AEB800090ED000AF1
:1039400054A9E01C01EB800080ED000A641C032CEC
:10395000F1DB002438E01FEDF90A4EA800EB8400EB
:1039600080ED000A00251BE04EA800EB840090EDDE
:10397000000A062000FB05401C49085600EE900A8C
:10398000F8EEE00A0DF67C3000EB850090ED001AB1
:1039900000EE810A4EA800EB840080ED000A6D1C49
:1039A0000C2DE1DB54A800EB840090ED000A4EA83A
:1039B00000EB8400D0ED000A30EE600A684600EBB0
:1039C000840080ED000A641C062CC4DB002437E070
:1039D0009FED080AB0EE408A002521E0AC060020E9
:1039E000CDCB00085C0B0020DC0600205DCC00087D
:1039F000A5CC0008000000000C2000FB054006A933
:103A000001EB8000D0ED000A684600EB850090EDE8
:103A1000001AB0EE480A00EE810AB0EE408A6D1C32
:103A2000062DE9DB0DF67C3101EB840090ED000AF8
:103A300030EE080AE24901EB840080ED000A641CC4
:103A40000C2CC5DB90210DF6EC20FCF7D4FB0025F7
:103A500007E001200C2101FB05510DF6EC2250542A
:103A60006D1C0C2DF5DB002439E0002534E01FED42
:103A70001F0AB0EE408A002617E00C2000FB06402B
:103A800006A901EB8000D0ED000A062000FB0560CE
:103A9000CC49085600EE100AB8EEC01AB0EE480A3B
:103AA00000EE810AB0EE408A761C062EE5DB0C2083
:103AB00000FB05410DF6EC20405600EE100AB8EE72
:103AC000C00A30EE480A0C2000FB0540BE4901EB5D
:103AD000800080ED000A6D1C0C2DC8DB641C0C2CD2
:103AE000C3DB002439E0002534E01FED3E0A0C2042
:103AF00000FB0540B54901EB800080ED000A00267F
:103B000025E00C2000FB0540B04901EB800090ED62
:103B1000000A0C2000FB0640AB4901EB8000D0ED11
:103B2000000A0C2000FB05600DF67C0101EB800013
:103B300090ED001A00EE810A0C2000FB0540A3491D
:103B400000E024E001EB800080ED000A761C0C2EE2
:103B5000D7DB6D1C0C2DC8DB641C0C2CC3DB16E002
:103B600000250BE00DF67C3000EB850090ED000A9F
:103B7000934800EB850080ED000A6D1C0C2DF1DBF5
:103B80004FF410720DF67C019048FCF71BFB8C483B
:103B9000183001F061F9B0EE408A8948243001F014
:103BA0005BF9F0EE40AA00251FE08549A81D01EB56
:103BB000800090ED000AB1EE400AC0EE080A0DF553
:103BC000466101EB8500C0ED000A7D4905F1090061
:103BD00001EB800090ED000AC0EE2A0A0DF66C4160
:103BE00001EB8500C0ED000A6D1C032DDDDB0DF53A
:103BF000406090ED190AD0ED1D0A20EE200AD0EDAC
:103C00001A0A90ED1C1A00EEC10A80ED0C0A90ED24
:103C10001A0AD0ED1B0A20EE200AD0ED180A90ED0A
:103C20001D1A00EEC10A80ED0D0A90ED180AD0EDC4
:103C30001C0A20EE200AD0ED190A90ED1B1A00EEA6
:103C4000C10A80ED0E0A303001F006F9B0EE408A6C
:103C500000240CE00DF5436101EB840090ED000AB7
:103C6000C0EE080A01EB8400C0ED000A641C032CBE
:103C7000F0DB0DF5406090ED0D0AD0ED1A0A20EE54
:103C8000200AD0ED0E0A90ED191A00EEC10A80ED5F
:103C90001B0A90ED0E0AD0ED180A20EE200AD0ED96
:103CA0000C0A90ED1A1A00EEC10A80ED1C0A90ED84
:103CB0000C0AD0ED190A20EE200AD0ED0D0A90ED85
:103CC000181A00EEC10A80ED1D0A6C3001F0C4F82C
:103CD000B0EE408A00240CE00DF66C4101EB84004C
:103CE00090ED000AC0EE080A01EB8400C0ED000A66
:103CF000641C032CF0DB00250BE0314901EB85004F
:103D000090ED000ADDF80C1D01EB850080ED000A46
:103D10006D1C0C2DF1DB4FF410722C49DDF8100DE9
:103D2000FCF750FA002420E00DF66C4000EB840014
:103D300090ED000A09EB840080ED000A0DF5436068
:103D400000EB840090ED000AE01C09EB800080EDA0
:103D5000000A0DF5466000EB840090ED000AA01DFE
:103D600009EB800080ED000A641C032CDCDB99ED7C
:103D7000081AF0EE410A99ED071AB0EE410A07F071
:103D800026FE8BED000A99ED06DAB0EE4D0A07F03B
:103D90005BFEB1EE400A8BED010A99ED001AF0EEE0
:103DA000410A99ED031AB0EE410A07F010FE8BEDBF
:103DB000020A0DF6844DBDEC0C8B0CB0BDE8F08F03
:103DC000AC0600205DCC00085C0B0020DC06002067
:103DD00010B5044604EB44001B4901EB800090ED54
:103DE000000A04EB440001EB800080ED010A00F0C2
:103DF00069F900EE100AB8EE400ADFED140A80EE11
:103E0000201A04EB4400104901EB800080ED001AF9
:103E100004EB440001EB800090ED000A04EB440049
:103E200001EB8000D0ED010A30EE600A04EB4400A3
:103E300001EB800080ED020A04EB440001EB8000FE
:103E400090ED020A10BD0000781200200024744991
:103E50000CB50020019000903448006840F4803098
:103E60003249086000BF3148006800F4003000901B
:103E70000198401C0190009818B90198B0F5A04F26
:103E8000F1D12A48006800F4003010B10120009000
:103E900001E0002000900098012846D123484030DE
:103EA000006840F080502149403108602048006897
:103EB00040F440401E4908601C48083000681B4917
:103EC000083108600846006840F400400860084671
:103ED000006840F4A05008601648091F0860081FD9
:103EE000006840F08070091F086000BF0F4800683C
:103EF00000F000700028F9D040F205700E4908600B
:103F00000A480830006820F00300084908310860BA
:103F10000846006840F00200086000BF034808300F
:103F2000006800F00C000828F8D10CBD00380240F1
:103F30000070004019544007003C024070B5044630
:103F40000D462946204600F0A9FA2946204600F0F1
:103F500015FA2946204600F045FA2946204600F089
:103F600033FB2946204600F03FFC70BD2DE9F34F9E
:103F700081B007463C4600200090834681460026DB
:103F8000804628E020782D2802D148F00208641CE1
:103F900020782C2802D020782A2800D11CE0207814
:103FA0002E2803D148F00108641C09E02078392844
:103FB00002DC2078302803DA4FF0000900260BE0FD
:103FC00008F0010010B1701CC6B203E009F1010055
:103FD00000F0FF09641CD5E700BF08F0020000B143
:103FE0007F1C00250EE0A9F10100401BC1B20A2090
:103FF00000F0D8FF795D3039009A00FB0120009075
:10400000681CC5B24D45EEDB052E00DD0526029885
:10401000067000250EE0701E401BC1B20A2000F0A1
:10402000C1FF09F101012944795C303900FB01BB72
:10403000681CC5B2B542EEDB31460A2000F0B2FF83
:10404000009901FB00BA08F0020008B1CAF1000AA9
:104050005046BDE8FE8F000070B5054607E01748E2
:1040600004681748046004F0450000B100E0F6E77A
:1040700000BF0420FCF726FF20B10420FCF71CFF42
:10408000032070BD0120FCF71DFF20B10120FCF7CB
:1040900013FF0120F5E7094824380068A84201D041
:1040A0001020EEE740F2FF50FCF706FF03482038EF
:1040B000006808210840C0B2E3E70000342C01404A
:1040C000D40000200B4A11684FF0E02252694FF0F3
:1040D000E0239B69D21A4FF47A735A434FF0E023DE
:1040E0005B69B2FBF3F201EB4103C3EBC11302EBDB
:1040F000C30070479000002010B504460548848135
:1041000001460548FCF71EFF01210348FCF700FFAC
:1041100010BD000008180020003001400246134680
:1041200010E010782A2805D01078202802DB1078BB
:104130007A2801DDFF20704710782C2801D1481E15
:10414000C1B2521C0029ECD1D01AC0B2F3E7000072
:10415000F0EE400A9FED0D0AF4EEC00AF1EE10FAFF
:1041600004DD9FED0B0A30EEC00A70479FED090A8F
:10417000F4EEC00AF1EE10FA04D29FED050A30EE1B
:10418000800AF2E7B0EE600AEFE700000000344377
:104190000000B443000034C310B54FF48070FCF746
:1041A00091FE78B34C480078012814D100204B4987
:1041B00008600C204860402088600020C8604FF4F0
:1041C000806008610846FCF78DFE0C20FFF744FF75
:1041D0004349087002E000204149087041480068E6
:1041E00040F480703F490860081D00684CF23A3185
:1041F00088433C49091D086001203B490870384844
:10420000007810BDFFE70220FCF75CFE78B10220C9
:10421000FCF752FE3348001D00684CF23A318843E7
:104220003049091D086002202D490870E9E708207F
:10423000FCF748FE78B10820FCF73EFE2948001D37
:1042400000684CF23A3188432649091D0860042071
:1042500023490870D5E72020FCF734FE78B12020F0
:10426000FCF72AFE1F48001D00684CF23A318843D3
:104270001C49091D0860062019490870C1E7102073
:10428000FCF720FE78B11020FCF716FE1548001D43
:1042900000684CF23A3188431249091D0860052034
:1042A0000F490870ADE74FF40070FCF70BFE80B1CA
:1042B0004FF40070FCF700FE0A48001D00684CF245
:1042C0003A3188430749091D0860072004490870EE
:1042D00097E7002095E70000CD000020981400200B
:1042E000CE000020382C0140CF0000200C49098866
:1042F000B1F5487F08DA0A490A880988491C084B41
:104300001980084988540AE00021054A11801146A5
:104310000A880988491C024B198002498854704751
:1043200000010020A928002070B50546002405E002
:10433000601CC4B2C82C01DD002070BD02210E48F3
:10434000FCF7F2FD0028F3D029460B48FCF7F8FDF6
:10435000002405E0601CC4B2C82C01DD0020ECE79D
:1043600001210548FCF7E0FD0028F3D00248FCF7E6
:10437000E4FDC0B2E1E7000000300140F8B50546B9
:104380000F4616A13846FBF741FF06460621304688
:10439000FFF7C4FE0446FF2C05D030196946FFF72D
:1043A000E5FD85F84E0007213046FFF7B7FE0446CD
:1043B000FF2C05D030196946FFF7D8FD85F84F006E
:1043C00009213046FFF7AAFE0446FF2C05D030191C
:1043D0006946FFF7CBFDC5F86300F8BD2447504799
:1043E000474100002DE9F8430546884629A140468B
:1043F000FBF70CFF064602213046FFF78FFE04460E
:10440000FF2C05D030196946FFF7B0FD85F85C0038
:10441000002713E0F81CC1B23046FFF77FFE0446C8
:10442000FF2C08D030196946FFF7A0FDC1B205F195
:104430005000C15500E003E0781CC7B20C2FE9DB47
:1044400000BF0F213046FFF769FE0446FF2C05D060
:1044500030196946FFF78AFDA5F85D001021304646
:10446000FFF75CFE0446FF2C05D030196946FFF7C4
:104470007DFDA5F85F0011213046FFF74FFE044691
:10448000FF2C05D030196946FFF770FDA5F86100D3
:10449000BDE8F88324475047534100002DE9FC5FF5
:1044A00007468A464FF00008CDF804A044A10198C1
:1044B000FBF7ACFE0646F079303800F0FF0B032125
:1044C0003046FFF72BFE0546FF2D04D070196946D4
:1044D000FFF74CFD38704FF000096CE038A10198EF
:1044E000FBF794FE064600245CE0042000EB840009
:1044F000C1B23046FFF712FE0546FF2D09D07019F4
:104500006946FFF733FDC1B208EB8802781C81547D
:1045100000E049E0052000EB8400C1B23046FFF71F
:10452000FDFD0546FF2D0AD070196946FFF71EFDF7
:10453000C1B208EB8802781C1044417000E033E0FF
:10454000062000EB8400C1B23046FFF7E7FD0546C8
:10455000FF2D0AD070196946FFF708FD81B208EBFC
:104560008802781C1044418000E01DE0072000EB29
:104570008400C1B23046FFF7D1FD0546FF2D0AD0B9
:1045800070196946FFF7F2FCC1B208EB8802781C8B
:104590001044017100E007E008F1010000F0FF089D
:1045A000601CC4B2042CA0DB00BF701C019009F198
:1045B000010000F0FF09D94590DBBDE8FC9F000039
:1045C00024475047535600002DE9F0432DED028B50
:1045D00081B00446884681A14046FBF717FE074696
:1045E00001213846FFF79AFD0546FF2D23D07819A3
:1045F0006946FFF7BBFC81469DF800100A2000F0D9
:10460000D1FCB9FBF0F642F21070B6FBF0F0C1B28B
:10461000412001556420B6FBF0F06421B0FBF1F2BB
:1046200001FB1201422001556420B6FBF0F100FBB2
:1046300011614320015503213846FFF76FFD054600
:10464000FF2D40D078196946FFF790FC06469DF88B
:104650000000801CC1B20A2000F0A4FCB6FBF0F000
:1046600060649DF80000801CC1B20A2000F09AFC32
:10467000B6FBF0F100FB116000EE100AB8EE408AC4
:1046800005210A2000F08EFC616C484300EE100A00
:10469000F8EE400A9DF80000C0F10500C1B20A2002
:1046A00000F080FC00EE100AB8EE400A20EE080A86
:1046B0009FED4C1AC0EE011A30EEA10ABCEEC00A02
:1046C00010EE100A606404213846FFF727FD054606
:1046D000FF2D02D0785D84F8480005213846FFF7A9
:1046E0001DFD0546FF2D44D078196946FFF73EFCB5
:1046F00006469DF80000801CC1B20A2000F052FC62
:10470000B6FBF0F044F8490F9DF80000801CC1B2E0
:104710000A2000F047FCB6FBF0F100FB116000EE50
:10472000100AB8EE400AB0EE408A05210A2000F0D7
:1047300039FC2168484300EE100AF8EE400A9DF863
:104740000000C0F10500C1B20A2000F02BFC00EE11
:10475000100AB8EE400A20EE080A9FED221AC0EEB9
:10476000011A30EEA10ABCEEC00A10EE100A44F89D
:10477000490906213846FFF7D1FC0546FF2D02D036
:10478000785D84F84D0009213846FFF7C7FC0546DF
:10479000FF2D1ED078196946FFF7E8FB064642F266
:1047A0001070B6FBF0F0C1B2402001556420B6FB9A
:1047B000F0F06421B0FBF1F201FB12013F20015542
:1047C0006420B6FBF0F100FB116000F5FA60A4F87C
:1047D0003D0001B0BDEC028BBDE8F0834750524D67
:1047E0004300000000007042F8B504460D4612A1D7
:1047F0002846FBF70BFD064607213046FFF78EFCE7
:104800000746FF2F16D0F0196946FFF7AFFBA4F853
:1048100067009DF8000003280CDA9DF80000C0F145
:104820000300C1B20A2000F0BDFBB4F86710484392
:10483000A4F86700F8BD0000244750565447000014
:104840007FB56846FCF7C4FA4FF47A710198B0FB63
:10485000F1F4E4082146481EB0F1807F00D31BE04C
:10486000481E4FF0E022506150170F22002807DA4F
:1048700013071E0E0B4B00F00F052D1F5E5503E0B6
:1048800013071D0E084B1D5400BF00204FF0E022FF
:1048900090610720106100BF6FF00400FCF771FB0E
:1048A0007FBD000018ED00E000E400E011B52DED43
:1048B0000A0B2DED108B9FB00446F0EE648A242283
:1048C000864916A8FBF77EFC0020139014901590E3
:1048D0000F901090119012909FED810AB0EE409AC7
:1048E0009FED800AF0EE409A9FED7F0AB0EE40AA5D
:1048F0009FED7E0AF0EE40AA9FED7D0AB0EE40EA01
:104900009FED7C0AF0EE40EA9FED7B0AB0EE40FAA4
:104910007A48007810B90120784908709DED2F0A77
:104920008DED160A9DED300A8DED170A9DED310AC9
:104930008DED180A9DED320A10EE101A0846FBF7AD
:1049400020FE41EC1D0B9FED6E0B53EC102BFBF783
:1049500026FD41EC1C0B9FED6C0B53EC102BFBF771
:1049600090FD41EC1B0BFBF74FFE19909DED330AB8
:1049700010EE101A0846FBF704FE41EC1D0B9FEDEC
:10498000600B53EC102BFBF70AFD41EC1C0B9FED69
:104990005E0B53EC102BFBF774FD41EC1B0BFBF78C
:1049A00033FE1A909DED340A10EE101A0846FBF7FC
:1049B000E8FD41EC1D0B9FED520B53EC102BFBF768
:1049C000EEFC41EC1C0B9FED500B53EC102BFBF756
:1049D00058FD41EC1B0BFBF717FE1B90DDED350A74
:1049E00060EEA00A9DED361ADDED361A41EE210A81
:1049F0009DED371ADDED371A41EE210AB0EE600A5F
:104A000000F070FADFED3C0A20EE208A9DED350AB9
:104A100020EE080A8DED1C0A9DED360A20EE080AEC
:104A20008DED1D0A9DED370A20EE080A8DED1E0A58
:104A3000242106A8FBF7DFFB9FED350A8DED060A62
:104A40009FED330A8DED0A0A9FED320A8DED0E0AB5
:104A50000FA813A9304A314BCDE90232CDE9041039
:104A60002F4806A9F0EE4F3AB0EE6E3AF0EE4E2A1D
:104A7000B0EE6A2AF0EE4A1AB0EE691AF0EE490A70
:104A800016ABB0EE680A2246CDE9001001210020E5
:104A9000FDF704F89DED131ADFED221ADFED220A6F
:104AA00051EE210AB0EE600AFFF752FB1F4880ED7D
:104AB0000F0A9DED140ADFED1B0A20EE200A80ED9F
:104AC000100A9DED150ADFED170A20EE200A80ED91
:104AD000110A1FB0BDEC108B0BB010BD2CCA000822
:104AE00017B7D1380AD7A33DBC74133C0AD7A33BF0
:104AF00017B7513A00401C460000C8424800002049
:104B00001F85EB51B89E2340000000000000B0401C
:104B1000FAEDEB3AB37B723B2400002048040020FE
:104B200018040020E12E6542000034439403002065
:104B30002DE9F0432DED068B89B004460D46002685
:104B400009E004EB860090ED000A684600EB860061
:104B500080ED000A761C092EF3DB002603274FF0B8
:104B60000608D4ED000AB0EE600A06F02BFFB0EEA6
:104B7000408AD4ED010AB0EE600A06F023FFF0EEA1
:104B8000408AD4ED020AB0EE600A06F01BFFB0EED8
:104B9000409AF4EEC88AF1EE10FA1FDDF4EEC98AED
:104BA000F1EE10FA1ADD0326002794ED010A8DEDCF
:104BB000000A94ED000A8DED010A94ED040A8DEDD2
:104BC000030A94ED030A8DED040A94ED070A8DEDB6
:104BD000060A94ED060A8DED070A1FE0B4EEC89AA6
:104BE000F1EE10FA1ADD06264FF0000894ED020AE5
:104BF0008DED000A94ED000A8DED020A94ED050A90
:104C00008DED030A94ED030A8DED050A94ED080A73
:104C10008DED060A94ED060A8DED080A9DED010A58
:104C2000DDED000A80EE201AF0EE418A9DED010ACA
:104C3000DDED000A80EE201A8DED011A9DED020ACD
:104C4000DDED000A80EE201AB0EE418A9DED020AE9
:104C5000DDED000A80EE201A8DED021A9DED040AAA
:104C6000DDED030A08EEE00A8DED040A9DED050A6C
:104C7000DDED030A08EE600A8DED050A9DED070AD9
:104C8000DDED060A08EEE00A8DED070A9DED080A43
:104C9000DDED060A08EE600A8DED080ADDED050A75
:104CA000B0EE600A06F08EFEB0EE40AADDED040A1A
:104CB000B0EE600A06F086FEB4EEC0AAF1EE10FA7D
:104CC0001ADDB9464746C8468DED018ACDED028A08
:104CD0009DED040AB0EE408A9DED050A8DED040AB3
:104CE0008DED058A9DED070AB0EE408A9DED080A1C
:104CF0008DED070A8DED088A9DED050AB0EE409A0C
:104D0000DDED049A9DED050ADDED040A80EE201A22
:104D1000F0EE418A9DED080ADDED070A08EEE00A93
:104D20008DED080A9DED020ADDED010A18EEA00ADC
:104D3000DDED080A80EE201AB0EE418A9DED010AF1
:104D4000DDED070A10EEC80ADDED040A80EE201A38
:104D5000F0EE418ADDED030AB7EE000A00EEE80A44
:104D6000DDED060A00EEC80ADDED000A80EE201A2D
:104D700005EB860080ED001A701C05EB8000C0ED8D
:104D8000008AB01C05EB800080ED008A89EE290ABC
:104D9000B1EE400ADDED080A80EE201AB0EE418A3D
:104DA000DDED070AB7EE000A00EEC80ADDED040AE1
:104DB00080EE201AF0EE418A9DED030A20EE280ACB
:104DC000DDED060A10EEC80ADDED000A80EE201ABD
:104DD00005EB870080ED001A781C05EB8000C0ED24
:104DE000008AB81C05EB800080ED008A9DED080A62
:104DF000F7EE000A80EE801AB0EE418A9DED070AB8
:104E0000B1EE400A20EE080ADDED040A80EE201A19
:104E1000F0EE418A9DED030A20EE280ADDED060A38
:104E200010EEC80ADDED000A80EE201A05EB8800BE
:104E300080ED001A08F1010005EB8000C0ED008A4A
:104E400008F1020005EB800080ED008A09B0BDEC9E
:104E5000068BBDE8F083000070B52DED048B054690
:104E60009FED1F0AF0EE409A9FED1D0AF0EE408A7A
:104E7000002428E005EB8400D0ED000AB0EE600AC3
:104E800006F0A0FDB0EE408AB4EEE88AF1EE10FA2A
:104E90000EDD88EE880AB0EE409A69EE890AB7EE18
:104EA000000A00EE890AF0EE409AF0EE488A09E026
:104EB00088EE280AB0EE409AB0EE690A09EE090AB7
:104EC000F0EE409A641C032CD4DB00BFB0EE690AFC
:104ED00006F082FF20EE280ABDEC048B70BD0000B6
:104EE00000000000B6EE001A20EE011AF0EE410AB2
:104EF00010EE100A0749A1EB600000EE100A60EE08
:104F0000801AB7EE081A01EEC01A21EE001AB0EEB0
:104F1000410A7047865A375FF0EE400A9FED020A59
:104F200020EE800A7047000034FA8E3C10B504462B
:104F300003E04FF47A7000F005F82000A4F10104BA
:104F4000F7D110BD30B50446FFF7BCF8054600BFE9
:104F5000FFF7B8F8401BA042FAD330BD70B50D483A
:104F60000088B0F5C87F13DD0A480588002405E0F5
:104F70000948005D09490855601C84B2AC42F7DB62
:104F8000002004490880054908550548FEF7D6FF6A
:104F900070BD000000010020A9280020C92B0020BE
:104FA0004028002010B50246012000E050430B00CD
:104FB000A1F10104E1B2F9D110BD000010B500F07B
:104FC000B5FA1948B0F90400022804DB00F0B6FA7B
:104FD0000020154988801448B0F90600052804DB34
:104FE00000F0F6FA00201049C8800F48B0F9080018
:104FF0000A2804DBFCF720FD00200B4908810A4841
:10500000B0F90A00142804DBFCF73AFD0020064939
:1050100048810548B0F90C00322804DBFCF734FD68
:1050200000200149888110BDA81200202DE9F34F0E
:105030002DED028BD5B081464FF4A27204A8589989
:10504000FBF7C0F8002504E0681C40B201A94855F0
:105050006D1C092DF8DB0026BFE006EB86004FEA49
:10506000400B0024DA4604A800EB8B00D0ED000AC8
:10507000B0EE600A06F0A6FCB0EE408A022515E00C
:105080000AF1010A04A800EB8A00D0ED000AB0EE94
:10509000600A06F097FCF0EE408AF4EEC88AF1EE62
:1050A00010FA02DD6C1EB0EE688A6D1CC6F10900B4
:1050B000A842E5DA0BEB040004A901EB800090EDB7
:1050C000000AB5EEC00AF1EE10FA41D024B330194F
:1050D000401C40B201A98855B2463444002519E06D
:1050E00004A800EB8A0090ED000AB0EE408A04A804
:1050F00000EB840090ED000A04A800EB8A0080ED2C
:10510000000A04A800EB840080ED008A0AF1090A75
:1051100009346D1C092DE3DBABEB060000F109053A
:105120000BF1010711E004A800EB870090ED000AE5
:1051300004A800EB8B00D0ED000A80EE201A04A832
:1051400000EB870080ED001A7F1C781CA842EADD86
:10515000D8460BF109040120009038E004A800EBC8
:10516000840090ED000AB0EE408A04A800EB8400B1
:1051700090ED000AB5EEC00AF1EE10FA21D00BF165
:10518000010AA8EB060000F1120508F10A0715E074
:1051900004A800EB870090ED000A04A800EB8A0049
:1051A000D0ED000AB1EE481A00EE810A04A800EB27
:1051B000870080ED000A0AF1010A7F1C781CA842D2
:1051C000E6DD093408F109080098401C0090C6F19A
:1051D000080100988142C1DA761C082EFFF63DAF27
:1051E00000265BE006EB46004FEA800806EBC604AB
:1051F000012531E0681E00EB400080000090281976
:10520000401E04A901EB800090ED000AB5EEC00A33
:10521000F1EE10FA1FD000271BE007EB080009EBA6
:10522000800090ED000A2819401E04A901EB8000BF
:10523000D0ED000A0098384409EB800090ED001A88
:1052400000EEC10A07EB080009EB800080ED000AC0
:105250007F1C0C2FE1DB6D1CB542CBDD301904A99E
:1052600001EB800090ED000AF7EE000A80EE801A54
:10527000B0EE418A00270EE007EB080009EB800042
:1052800090ED000A20EE080A07EB080009EB800009
:1052900080ED000A7F1C0C2FEEDB761C092EA1DBB3
:1052A00008263BE006EB46004FEA800806EBC60006
:1052B000441EB51C2FE0681E00EB400080000090EB
:1052C000281904A901EB800090ED000AB5EEC00A90
:1052D000F1EE10FA1ED000271AE007EB080009EBE8
:1052E000800090ED000A281904A901EB8000D0EDA0
:1052F000000A0098384409EB800090ED001A00EE97
:10530000C10A07EB080009EB800080ED000A7F1C52
:105310000C2FE2DB6D1C0A2DCDDB761E002EC1DAD0
:1053200007242FE001A80157601C814229D04FF0CB
:10533000000823E00C2000FB048009EB800090EDC6
:10534000000AB0EE408A01A80057401E0C2111FB54
:10535000008009EB800090ED000A01FB048009EB5E
:10536000800080ED000A01A80057401E11FB00805C
:1053700009EB800080ED008A08F10108B8F10C0FFC
:10538000D8DB641E002CCDDA55B0BDEC028BBDE835
:10539000FC8F000000B51C48006840F2E7318842ED
:1053A00007DA19480068401C17490860FCF764F9DF
:1053B00029E0002014490860144800683B2805DAF9
:1053C00012480068401C114908601CE000200F4989
:1053D00008600F4800683B2805DA0D480068401C4B
:1053E0000B4908600FE0002009490860094800687F
:1053F000172805DA07480068401C0649086002E0E3
:1054000000200449086000BDA4000020A000002086
:105410009C000020980000201CB501210846FBF7E5
:1054200087FC01210803FBF7B3FC052211462B483A
:10543000FBF709FC052206212848FBF704FC05229E
:1054400007212648FBF7FFFBE020009002208DF8A3
:1054500004008DF8050000208DF8060002208DF86C
:10546000070069461D48FBF7A6FBE0211B48FBF738
:105470000FFC1020009001208DF8040000208DF812
:10548000060001208DF8070000208DF80500694610
:105490001248FBF790FB10211048FBF7F9FB0020A6
:1054A0000F4908804FF482704880002088800220D5
:1054B000C88001200881400248813820888100206E
:1054C000C881072008820748FBF73CFD01210548F9
:1054D000FBF71EFDFF20FEF727FF1CBD000002406A
:1054E0000818002000300140B0EE401AB5EEC01A96
:1054F000F1EE10FA0BDD31EE600AB5EEC00AF1EE06
:1055000010FA0FD2DFED081AB0EE610A0AE031EEB0
:10551000200AB5EEC00AF1EE10FA03DDDFED021A43
:10552000B0EE610A704700000000000010B50248AC
:1055300004F0F0F910BD00000013002000B52DEDBF
:10554000088B85B00120FEF743FCB0EE408AB0EE38
:10555000480A194800F02AFEB0EE480A174805F03C
:10556000BDFD154890ED110A10EE101A0846FBF724
:1055700008F841EC190B104890ED100A10EE101AC3
:105580000846FAF7FEFF41EC1A0B0B4890ED0F0AA4
:1055900010EE101A0846FAF7F4FF41EC1B0B8DEDE4
:1055A000029B8DED00AB53EC1B2B05A006F020FAFF
:1055B00005B0BDEC088B00BD94030020DC1000207A
:1055C0002025662020256620202566200A00000070
:1055D00010B52DED028B0220FEF7FAFBB0EE408AEB
:1055E000B0EE480A074800F09BFFB0EE480A0648B4
:1055F00003F0CAF9B0EE480A044805F0CDFFBDEC4F
:10560000028B10BDC002002000000020DC10002032
:1056100010B58AB00446242301AA1748216900F076
:10562000D3FC9DED010A154880ED020A9DED020AAA
:1056300080ED030A9DED030A80ED040A9DED040A46
:1056400080ED120A9DED050A80ED130A9DED060A14
:1056500080ED140A9DED070A80ED220A9DED080AEF
:1056600080ED230A9DED090A80ED240A04A006F0CE
:10567000BFF90AB010BD0000F8000020280100208A
:10568000BDC7B6C8BBB7B2CECAFDB6C1C8A1B3C903
:10569000B9A62E2E2E2E0A0010B58AB00446184840
:1056A00090ED020A8DED010A90ED030A8DED020ADC
:1056B00090ED040A8DED030A90ED120A8DED040AB7
:1056C00090ED130A8DED050A90ED140A8DED060A92
:1056D00090ED220A8DED070A90ED230A8DED080A60
:1056E00090ED240A8DED090A242301AA05482169B9
:1056F00000F078FC04A006F07BF90AB010BD0000B1
:1057000028010020F8000020BDC7B6C8BBB77069EB
:105710006420B4E6C8EBB3C9B9A62E2E2E0A000049
:1057200010B504460020606060680C30A060A0687E
:105730000C30E060E0682430206120692430606132
:1057400060691830A061A0691830E061204600F05F
:105750001DF90120FFF7EAFB204600F0A9F801201F
:10576000FFF7E4FB204600F081F90120FFF7DEFBA4
:105770002046FFF74DFF0120FFF7D8FB204600F041
:105780000DF80120FFF7D2FB204600F0A5FA01201A
:10579000FFF7CCFB204600F063FA10BD10B58AB0CD
:1057A0000446242301AA1748616900F00DFC9DED11
:1057B000010A154880ED020A9DED020A80ED030AF8
:1057C0009DED030A80ED040A9DED040A80ED120AA6
:1057D0009DED050A80ED130A9DED060A80ED140A81
:1057E0009DED070A80ED220A9DED080A80ED230A4F
:1057F0009DED090A80ED240A04A006F0F9F80AB02C
:1058000010BD0000F8000020E8010020BDC7CBD982
:10581000B6C8BBB7B2CECAFDB6C1C8A1B3C9B9A696
:105820002E2E2E2E2E0A000010B58AB004461848DF
:1058300090ED020A8DED010A90ED030A8DED020A4A
:1058400090ED040A8DED030A90ED120A8DED040A25
:1058500090ED130A8DED050A90ED140A8DED060A00
:1058600090ED220A8DED070A90ED230A8DED080ACE
:1058700090ED240A8DED090A242301AA05486169E7
:1058800000F0B0FB04A006F0B3F80AB010BD0000B1
:10589000E8010020F8000020BDC7B6C8BBB770699A
:1058A0006420B4E6C8EBB3C9B9A62E2E2E0A0000B8
:1058B00010B52DED028B84B004460C2301AA2248BA
:1058C000616800F081FB9DED010A204880ED1F0A10
:1058D0009DED020A80ED200A9DED030A80ED210A6C
:1058E00090ED1F0A10EE101A0846FAF74AFE41EC36
:1058F000180B53EC182B16A006F07AF8134890ED0D
:10590000200A10EE101A0846FAF73BFE41EC180B7D
:1059100053EC182B11A006F06BF80C4890ED210AFF
:1059200010EE101A0846FAF72CFE41EC180B53EC57
:10593000182B0DA006F05CF80EA006F059F804B084
:10594000BDEC028B10BD0000F800002040170020C5
:1059500061636320782025660A000000616363208C
:10596000792025660A000000616363207A2025669D
:105970000A000000BCD3BCC6B6C1C8A1CAFDBEDDCA
:10598000B3C9B9A62E2E2E2E2E0A000010B52DED6D
:10599000028B84B004460C2301AA2248A16800F0BF
:1059A00013FB9DED010A204880ED1C0A9DED020AC3
:1059B00080ED1D0A9DED030A80ED1E0A90ED1C0A84
:1059C00010EE101A0846FAF7DCFD41EC180B53EC08
:1059D000182B16A006F00CF8134890ED1D0A10EED7
:1059E000101A0846FAF7CDFD41EC180B53EC182BB2
:1059F00011A005F0FDFF0C4890ED1E0A10EE101AE4
:105A00000846FAF7BEFD41EC180B53EC182B0DA01D
:105A100005F0EEFF0EA005F0EBFF04B0BDEC028B2D
:105A200010BD0000F80000204017002067797220A8
:105A3000782025660A0000006779722079202566A3
:105A40000A000000677972207A2025660A000000AB
:105A5000CDD3C2DDD2C7B6C1C8A1CAFDBEDDB3C9B0
:105A6000B9A62E2E2E2E2E0A0000000010B52DED08
:105A7000028B84B004460C2301AA2248E16800F09E
:105A8000A3FA9DED010A204880ED0A0A9DED020A65
:105A900080ED0B0A9DED030A80ED0C0A90ED0A0AD9
:105AA00010EE101A0846FAF76CFD41EC180B53EC97
:105AB000182B16A005F09CFF134890ED0B0A10EE72
:105AC000101A0846FAF75DFD41EC180B53EC182B41
:105AD00011A005F08DFF0C4890ED0C0A10EE101A85
